:100000000C9434000C9451000C9451000C94510049
:100010000C9451000C9451000C9451000C9451001C
:100020000C9451000C9451000C9451000C9451000C
:100030000C9451000C9451000C9499010C945100B3
:100040000C9451000C9451000C9451000C945100EC
:100050000C9451000C9451000C9451000C945100DC
:100060000C9451000C94510011241FBECFEFD8E026
:10007000DEBFCDBF11E0A0E0B1E0E0EFF9E002C0EB
:1000800005900D92AC32B107D9F721E0ACE2B1E0B6
:1000900001C01D92A433B207E1F70E947C020C94C8
:1000A000F6040C9400008BB18F708BB966230CF4AE
:1000B0005F9A66FD5E9A65FD5D9A64FD5C9A299A79
:1000C00085E08A95F1F70000299885E08A95F1F797
:1000D00000000895CF93C62F289A8CE291E00E94E9
:1000E00053006C2F6295607F8CE291E00E94530078
:1000F0008FE391E00197F1F700C00000CF910895E0
:10010000CF93C62F28988CE291E00E9453006C2F69
:100110006295607F8CE291E00E9453008FE391E052
:100120000197F1F700C00000CF910895413011F020
:1001300080E401C080E0680F60688CE291E00E947A
:100140008000089561E08CE291E00E9480008FE1E0
:100150009EE40197F1F700C0000008950F931F93EC
:10016000CF93DF936830E8F4C62FCC0FCC0FCC0FC1
:10017000C05C042F152FD8E0DC0F6C2F8CE291E0CF
:100180000E948000F80161918F018CE291E00E9451
:100190006A00CF5FCD13F1CF60E88CE291E00E945E
:1001A0008000DF91CF911F910F910895ECE2F1E073
:1001B00062816D7F62836460CF010E948000089538
:1001C000ECE2F1E06281862F826082836660CF017B
:1001D0000E94800008952A9A0895CF93DF932FEF0D
:1001E00089E698E1215080409040E1F700C000008E
:1001F0008AB1806F8AB984B1876084B98CE291E05A
:100200000E94EB0060E38CE291E00E9453008FE1DA
:100210009EE40197F1F700C0000060E38CE291E0FA
:100220000E9453008FE193E00197F1F700C00000B6
:1002300060E38CE291E00E9453008FE193E001972C
:10024000F1F700C00000CCE2D1E088E2898368E2E7
:10025000CE010E9453008FE193E00197F1F700C0B7
:1002600000006981CE010E94800068E0CE010E94FA
:100270008000CE010E94A20082E08A8366E0CE0167
:100280000E9480008CE088836CE0CE010E94800098
:10029000DF91CF9108950F931F93CF938C01FC01B1
:1002A00001900020E9F7E81BCEEFCE0F72F0F801C5
:1002B000EC0FF11DC7FDFA9560816F3F21F081E3DE
:1002C00091E00E946A00C15092F7CF911F910F9167
:1002D00008951F93CF93DF93EC0110E0812F90E0FE
:1002E000FE0101900020E9F73197EC1BFD0B8E1702
:1002F0009F0760F4FE01E80FF91F60816F3F21F056
:1003000081E391E00E946A001F5FE8CFDF91CF9107
:100310001F910895EAE7F0E0808180648083808106
:1003200086FDFDCF809178002091790090E0922B9E
:1003300008951F920F920FB60F9211242F933F939F
:100340004F935F936F937F938F939F93AF93BF93DD
:10035000EF93FF930E948A0180569109089778F4E1
:1003600080910401882359F080912F01811107C0E9
:1003700081E0809330011092040180932F01FF915E
:10038000EF91BF91AF919F918F917F916F915F910D
:100390004F913F912F910F900FBE0F901F90189586
:1003A0003F924F925F926F927F928F929F92AF9205
:1003B000BF92CF92DF92EF92FF920F931F93CF9352
:1003C000DF93CDB7DEB72E970FB6F894DEBF0FBE22
:1003D000CDBF9C01862E8E010F5F1F4F5E018BE00B
:1003E000A80EB11CF8019FEF9193AE16BF06E1F77E
:1003F0000F2EC12CFAECDF2EFAE9EF2EFBE3FF2ED5
:10040000F02D912CC901A0E0B0E08B879C87AD87CF
:10041000BE870F2EFAE04F2E512C612C712CF02D3F
:10042000332433946B857C858D859E85A701960149
:100430000E942304CA01B901A30192010E9423046E
:10044000611103C0992029F001C0932C605DD8018F
:100450006C93C701B601A30192010E9423046901B4
:100460007A010F5F1F4FA016B106E1F6911002C08E
:1004700080E389831B86882031F061E0CE010196FC
:100480000E944B0104C0CE0101960E9469012E9684
:100490000FB6F894DEBF0FBECDBFDF91CF911F9195
:1004A0000F91FF90EF90DF90CF90BF90AF909F9013
:1004B0008F907F906F905F904F903F900895CF9373
:1004C000DF93EC0181E391E00E94D60041E06FE010
:1004D00081E391E00E94960061E0CE010E94D0018C
:1004E00061E085E191E00E944B0181E391E00E948F
:1004F000E000DF91CF910895CF93DF93CDB7DEB7C2
:100500006F970FB6F894DEBF0FBECDBFECE7F0E0FB
:10051000808180648083EAE7F0E08081876880835F
:100520008FE787BD82E084BD93E095BD80936E0028
:10053000789481E391E00E94ED0088E0E5E0F1E04D
:10054000DE01119601900D928A95E1F788E0EDE0C9
:10055000F1E0DE01199601900D928A95E1F79E0176
:100560002F5D3F4FFE01719680E28193E217F30702
:10057000E1F7AE014F5F5F4F61E081E391E00E94E0
:10058000AE00AE01475F5F4F62E081E391E00E9401
:10059000AE00612C712CEE24E394F12CC12C0F2EB3
:1005A000F8EC5F2EF02D0F2EF6E04F2EF02D0F2ED3
:1005B000FCE7AF2EB12CF02D8E01005E1F4F68942A
:1005C000DD24D5F86894332431F80F2EFFEA2F2E5E
:1005D000F02DF5018081866080830E948A010E944F
:1005E000D804F5018081897F80830E948A01853843
:1005F000934008F4EAC010922F01E7C081818193F3
:100600000E171F07D9F70E94D3044C010E94D30490
:10061000FC01C40164E670E00E940F049C01CF015C
:1006200064E670E00E940F04821793070CF0D0C0BC
:10063000CC2009F4CFC0CCC09C88809130018111BE
:1006400011C0882483948C8A432D60E081E391E07B
:100650000E949600CE0141960E9469019C8A809278
:10066000040117C041E063E081E391E00E9496003D
:1006700061E081E391E00E946A00432D60E081E344
:1006800091E00E949600CE0141960E94690110926D
:100690000401CC2021F0C3944C1408F4C12C8091A7
:1006A0003001882329F0809130018F5F80933001E1
:1006B00080913001853068F041E063E081E391E0B2
:1006C0000E9496006D2D81E391E00E946A001092D5
:1006D00030012FEFE21AF20A6E147F0408F437019A
:1006E000C7010E945F0282E098122AC08091300107
:1006F000882309F473C024C00E948A018C57924059
:100700000997D0F781E391E00E94A200FE01719663
:10071000D1920E171F07E1F71092300110922F01AE
:1007200081E080930401EE24E394F12CC12C0F2E80
:10073000F6E04F2EF02D0F2EF8EC5F2EF02D1CC0A2
:100740009701ADECBCEC0E94420496958795969576
:1007500087959C01220F331F220F331F820F931F97
:10076000E816F90611F45A945A94E4E5E51520F0D8
:100770000F2EF5E55F2EF02D9701AFE3BBEB0E9446
:100780004204880F892F881F990B9195289E90010C
:10079000299E300D1124E216F30609F44A94F4E080
:1007A000F41520F00F2EF5E04F2EF02D552009F412
:1007B00010CF80E0EFE9FFE03197F1F700C00000D3
:1007C0008F5F581609F405CFF5CFFE01719616CF4D
:1007D000D8A232CF38A2CC24C3942ECF81E391E0AB
:1007E0000E94A20041E060E081E391E00E94960057
:1007F0008CE191E00E94690160E0C7010E94D00194
:10080000432D60E081E391E00E94960084E291E054
:100810000E94690160E0C3010E94D0016DCF97FB87
:10082000072E16F4009407D077FD09D00E945104DA
:1008300007FC05D03EF4909581959F4F08957095E3
:1008400061957F4F0895052E97FB1EF400940E943A
:100850003A0457FD07D00E94650407FC03D04EF40C
:100860000C943A0450954095309521953F4F4F4F49
:100870005F4F089590958095709561957F4F8F4F4C
:100880009F4F0895A29FB001B39FC001A39F700D19
:10089000811D1124911DB29F700D811D1124911D88
:1008A0000895AA1BBB1B51E107C0AA1FBB1FA617B7
:1008B000B70710F0A61BB70B881F991F5A95A9F709
:1008C00080959095BC01CD010895A1E21A2EAA1B36
:1008D000BB1BFD010DC0AA1FBB1FEE1FFF1FA217F0
:1008E000B307E407F50720F0A21BB30BE40BF50BED
:1008F000661F771F881F991F1A9469F76095709576
:10090000809590959B01AC01BD01CF0108958F9218
:100910009F92AF92BF92CF92DF92EF92FF92CF93CE
:10092000DF93EC01688179818A819B816115710572
:100930008105910521F464E279ED8BE597E02DE1E5
:1009400033EF41E050E00E94230449015A019B012A
:10095000AC01A7EAB1E40E94E3046B017C01ACEEB8
:10096000B4EFA50194010E94F104DC01CB018C0DD0
:100970009D1DAE1DBF1DB7FF03C00197A109B04863
:1009800088839983AA83BB839F77DF91CF91FF9060
:10099000EF90DF90CF90BF90AF909F908F90089591
:1009A0000E948704089580E091E00E9487040895E2
:1009B000A0E0B0E08093000190930101A0930201B8
:1009C000B093030108950E944204A59F900DB49F27
:1009D000900DA49F800D911D11240895B7FF0C94D4
:1009E000E3040E94E304821B930B0895F894FFCF65
:1009F00001000000010E171E1F181F1A1204051512
:100A000015160C040453636F72653A0053636F72DA
:0C0A1000653A2000426573743A20000033
:00000001FF
